{
  "contractName": "Lottery",
  "abi": [
    {
      "constant": true,
      "inputs": [],
      "name": "w",
      "outputs": [
        {
          "name": "",
          "type": "uint256"
        }
      ],
      "payable": false,
      "stateMutability": "view",
      "type": "function"
    },
    {
      "constant": true,
      "inputs": [
        {
          "name": "",
          "type": "uint256"
        }
      ],
      "name": "holders",
      "outputs": [
        {
          "name": "",
          "type": "address"
        }
      ],
      "payable": false,
      "stateMutability": "view",
      "type": "function"
    },
    {
      "constant": true,
      "inputs": [
        {
          "name": "",
          "type": "address"
        }
      ],
      "name": "Guesses",
      "outputs": [
        {
          "name": "",
          "type": "uint256"
        }
      ],
      "payable": false,
      "stateMutability": "view",
      "type": "function"
    },
    {
      "constant": true,
      "inputs": [],
      "name": "Total",
      "outputs": [
        {
          "name": "",
          "type": "uint256"
        }
      ],
      "payable": false,
      "stateMutability": "view",
      "type": "function"
    },
    {
      "constant": true,
      "inputs": [
        {
          "name": "",
          "type": "uint256"
        }
      ],
      "name": "allholders",
      "outputs": [
        {
          "name": "",
          "type": "address"
        }
      ],
      "payable": false,
      "stateMutability": "view",
      "type": "function"
    },
    {
      "constant": true,
      "inputs": [
        {
          "name": "",
          "type": "uint256"
        }
      ],
      "name": "winners",
      "outputs": [
        {
          "name": "",
          "type": "address"
        }
      ],
      "payable": false,
      "stateMutability": "view",
      "type": "function"
    },
    {
      "constant": true,
      "inputs": [
        {
          "name": "",
          "type": "uint256"
        }
      ],
      "name": "allguess",
      "outputs": [
        {
          "name": "",
          "type": "uint256"
        }
      ],
      "payable": false,
      "stateMutability": "view",
      "type": "function"
    },
    {
      "inputs": [],
      "payable": false,
      "stateMutability": "nonpayable",
      "type": "constructor"
    },
    {
      "anonymous": false,
      "inputs": [
        {
          "indexed": true,
          "name": "from",
          "type": "address"
        },
        {
          "indexed": true,
          "name": "PlayerID",
          "type": "uint256"
        },
        {
          "indexed": true,
          "name": "_guess",
          "type": "uint256"
        },
        {
          "indexed": false,
          "name": "value",
          "type": "uint256"
        }
      ],
      "name": "Guess",
      "type": "event"
    },
    {
      "constant": false,
      "inputs": [
        {
          "name": "guess",
          "type": "uint256"
        }
      ],
      "name": "makeGuess",
      "outputs": [
        {
          "name": "",
          "type": "bool"
        }
      ],
      "payable": true,
      "stateMutability": "payable",
      "type": "function"
    },
    {
      "constant": false,
      "inputs": [],
      "name": "drawwinner",
      "outputs": [
        {
          "name": "",
          "type": "address[]"
        }
      ],
      "payable": false,
      "stateMutability": "nonpayable",
      "type": "function"
    },
    {
      "constant": false,
      "inputs": [],
      "name": "distributeReward",
      "outputs": [],
      "payable": false,
      "stateMutability": "nonpayable",
      "type": "function"
    }
  ],
  "bytecode": "0x608060405234801561001057600080fd5b50336000806101000a81548173ffffffffffffffffffffffffffffffffffffffff021916908373ffffffffffffffffffffffffffffffffffffffff160217905550620f42406004819055506001600a60016101000a81548160ff0219169083151502179055506110af806100856000396000f3006080604052600436106100a4576000357c0100000000000000000000000000000000000000000000000000000000900463ffffffff1680630d051200146100a9578063205c9cc71461011557806322666da6146101405780632a11ced01461017857806359f246a8146101e55780638f73c5ae1461023c5780639257b8f4146102535780639a2ce4771461027e578063a2fb1175146102eb578063c142cbd314610358575b600080fd5b3480156100b557600080fd5b506100be610399565b6040518080602001828103825283818151815260200191508051906020019060200280838360005b838110156101015780820151818401526020810190506100e6565b505050509050019250505060405180910390f35b34801561012157600080fd5b5061012a6107b9565b6040518082815260200191505060405180910390f35b61015e600480360381019080803590602001909291905050506107bf565b604051808215151515815260200191505060405180910390f35b34801561018457600080fd5b506101a360048036038101908080359060200190929190505050610cdd565b604051808273ffffffffffffffffffffffffffffffffffffffff1673ffffffffffffffffffffffffffffffffffffffff16815260200191505060405180910390f35b3480156101f157600080fd5b50610226600480360381019080803573ffffffffffffffffffffffffffffffffffffffff169060200190929190505050610d10565b6040518082815260200191505060405180910390f35b34801561024857600080fd5b50610251610d28565b005b34801561025f57600080fd5b50610268610fcb565b6040518082815260200191505060405180910390f35b34801561028a57600080fd5b506102a960048036038101908080359060200190929190505050610fd1565b604051808273ffffffffffffffffffffffffffffffffffffffff1673ffffffffffffffffffffffffffffffffffffffff16815260200191505060405180910390f35b3480156102f757600080fd5b506103166004803603810190808035906020019092919050505061100f565b604051808273ffffffffffffffffffffffffffffffffffffffff1673ffffffffffffffffffffffffffffffffffffffff16815260200191505060405180910390f35b34801561036457600080fd5b506103836004803603810190808035906020019092919050505061104d565b6040518082815260200191505060405180910390f35b606060008060009054906101000a900473ffffffffffffffffffffffffffffffffffffffff1673ffffffffffffffffffffffffffffffffffffffff163373ffffffffffffffffffffffffffffffffffffffff16141515610461576040517f08c379a00000000000000000000000000000000000000000000000000000000081526004018080602001828103825260138152602001807f6f6e6c79206f776e65722063616e2063616c6c0000000000000000000000000081525060200191505060405180910390fd5b600a60009054906101000a900460ff161515156104e6576040517f08c379a00000000000000000000000000000000000000000000000000000000081526004018080602001828103825260188152602001807f77696e6e65722068617320616c726561647920447261776e000000000000000081525060200191505060405180910390fd5b6105053373ffffffffffffffffffffffffffffffffffffffff16611070565b15151561057a576040517f08c379a00000000000000000000000000000000000000000000000000000000081526004018080602001828103825260148152602001807f6f6e6c792068756d616e732063616e20706c617900000000000000000000000081525060200191505060405180910390fd5b6015424460405160200180838152602001828152602001925050506040516020818303038152906040526040518082805190602001908083835b6020831015156105d957805182526020820191506020810190506020830392506105b4565b6001836020036101000a03801982511681845116808217855250505050505090500191505060405180910390206001900481151561061357fe5b0660ff16600781905550600090505b6002805490508110156107115760058181548110151561063e57fe5b9060005260206000200154600754141561070457600360028281548110151561066357fe5b9060005260206000200160009054906101000a900473ffffffffffffffffffffffffffffffffffffffff1690806001815401808255809150509060018203906000526020600020016000909192909190916101000a81548173ffffffffffffffffffffffffffffffffffffffff021916908373ffffffffffffffffffffffffffffffffffffffff160217905550506006600081548092919060010191905055505b8080600101915050610622565b6001600a60006101000a81548160ff02191690831515021790555060038054806020026020016040519081016040528092919081815260200182805480156107ae57602002820191906000526020600020905b8160009054906101000a900473ffffffffffffffffffffffffffffffffffffffff1673ffffffffffffffffffffffffffffffffffffffff1681526020019060010190808311610764575b505050505091505090565b60075481565b60008060009054906101000a900473ffffffffffffffffffffffffffffffffffffffff1673ffffffffffffffffffffffffffffffffffffffff163373ffffffffffffffffffffffffffffffffffffffff1614151515610886576040517f08c379a00000000000000000000000000000000000000000000000000000000081526004018080602001828103825260148152602001807f6f776e6572206973206e6f7420616c6c6f77656400000000000000000000000081525060200191505060405180910390fd5b60011515600a60019054906101000a900460ff161515141515610911576040517f08c379a00000000000000000000000000000000000000000000000000000000081526004018080602001828103825260138152602001807f6c6f7474657279206973206e6f74206f70656e0000000000000000000000000081525060200191505060405180910390fd5b6109303373ffffffffffffffffffffffffffffffffffffffff16611070565b1515156109a5576040517f08c379a00000000000000000000000000000000000000000000000000000000081526004018080602001828103825260148152602001807f6f6e6c792068756d616e732063616e20706c617900000000000000000000000081525060200191505060405180910390fd5b60208214151515610a1e576040517f08c379a000000000000000000000000000000000000000000000000000000000815260040180806020018281038252600f8152602001807f63616e6e6f7420626520656d707479000000000000000000000000000000000081525060200191505060405180910390fd5b60148211151515610abd576040517f08c379a00000000000000000000000000000000000000000000000000000000081526004018080602001828103825260218152602001807f6e756d6265722073686f756c64206265206265747765656e203020616e64203281526020017f300000000000000000000000000000000000000000000000000000000000000081525060400191505060405180910390fd5b60045434141515610b36576040517f08c379a00000000000000000000000000000000000000000000000000000000081526004018080602001828103825260178152602001807f70726963652073686f756c64206265203130303030303000000000000000000081525060200191505060405180910390fd5b60023390806001815401808255809150509060018203906000526020600020016000909192909190916101000a81548173ffffffffffffffffffffffffffffffffffffffff021916908373ffffffffffffffffffffffffffffffffffffffff1602179055505033600b6000600954815260200190815260200160002060006101000a81548173ffffffffffffffffffffffffffffffffffffffff021916908373ffffffffffffffffffffffffffffffffffffffff160217905550600960008154809291906001019190505550600582908060018154018082558091505090600182039060005260206000200160009091929091909150555081600c60003373ffffffffffffffffffffffffffffffffffffffff1673ffffffffffffffffffffffffffffffffffffffff1681526020019081526020016000208190555034600860008282540192505081905550816009543373ffffffffffffffffffffffffffffffffffffffff167f6a2b61f774cffdaa0e8b28eea5fef8e4f8460f4029344bd09c712cf79cc6c02d346040518082815260200191505060405180910390a460019050919050565b600b6020528060005260406000206000915054906101000a900473ffffffffffffffffffffffffffffffffffffffff1681565b600c6020528060005260406000206000915090505481565b6000806000809054906101000a900473ffffffffffffffffffffffffffffffffffffffff1673ffffffffffffffffffffffffffffffffffffffff163373ffffffffffffffffffffffffffffffffffffffff16141515610def576040517f08c379a00000000000000000000000000000000000000000000000000000000081526004018080602001828103825260138152602001807f6f6e6c79206f776e65722063616e2063616c6c0000000000000000000000000081525060200191505060405180910390fd5b60011515600a60019054906101000a900460ff161515141515610e7a576040517f08c379a00000000000000000000000000000000000000000000000000000000081526004018080602001828103825260138152602001807f6c6f7474657279206973206e6f74206f70656e0000000000000000000000000081525060200191505060405180910390fd5b60006006541415610ebf576000809054906101000a900473ffffffffffffffffffffffffffffffffffffffff1673ffffffffffffffffffffffffffffffffffffffff16ff5b60065460023073ffffffffffffffffffffffffffffffffffffffff1631811515610ee557fe5b04811515610eef57fe5b049150600090505b600380549050811015610f9157600381815481101515610f1357fe5b9060005260206000200160009054906101000a900473ffffffffffffffffffffffffffffffffffffffff1673ffffffffffffffffffffffffffffffffffffffff166108fc839081150290604051600060405180830381858888f19350505050158015610f83573d6000803e3d6000fd5b508080600101915050610ef7565b6000809054906101000a900473ffffffffffffffffffffffffffffffffffffffff1673ffffffffffffffffffffffffffffffffffffffff16ff5b60085481565b600281815481101515610fe057fe5b906000526020600020016000915054906101000a900473ffffffffffffffffffffffffffffffffffffffff1681565b60038181548110151561101e57fe5b906000526020600020016000915054906101000a900473ffffffffffffffffffffffffffffffffffffffff1681565b60058181548110151561105c57fe5b906000526020600020016000915090505481565b600080823b9050600081119150509190505600a165627a7a72305820fe5f77337dd153d21cf4090c930f71bf5fab9c55b2f3751681bc5317d22922990029",
  "source": "pragma solidity ^0.4.24;\n\nimport \"./lib/Address.sol\";\n\ncontract Lottery{\n    \n  \n  address owner;\n  address winner;\n  address[] public allholders;\n  address[] public winners;\n  \n  uint price;\n  uint[] public allguess;\n  uint count;\n  uint public w;\n  uint public Total;\n  uint playerID;\n  \n  using Address for address;\n  bool winnerDrawn;\n  bool active;\n  \n    \n//-----------------------------------------Mappings----------------------------------------\n    \n\n\n  mapping (uint => address) public holders;      // PlayerID => participant_address\n  mapping (address => uint) public Guesses;      //participant_address => guess\n  \n    \n    \n\n//-----------------------------------------Events----------------------------------------\n    \n    \n  event Guess(\n      address indexed from,\n      uint indexed PlayerID,\n      uint indexed _guess,\n      uint value\n  );\n    \n    \n    \n//-----------------------------------------Modifiers------------------------------------    \n    \n    \n    \n  modifier onlyowner(){\n    require(msg.sender==owner,\"only owner can call\");\n    _;\n  }\n  modifier notowner(){\n    require(msg.sender!=owner,\"owner is not allowed\");\n    _;\n  }\n  modifier alreadyDrawn(){\n    require(!winnerDrawn,\"winner has already Drawn\");\n    _;\n  }\n  modifier lotteryActive{\n    require(active==true,\"lottery is not open\");\n    _;\n  }\n  modifier isHuman() {\n    require(!msg.sender.isContract(),\"only humans can play\");\n    _;\n  }\n    \n    \n//------------------------------------constructor----------------------------------------------------    \n    \n    \n    \n  constructor() public{\n    owner = msg.sender;\n    price = 1000000 wei;\n    active = true;\n  }\n\n    \n//------------------------------------Public Functions----------------------------------------------------       \n\n\n  function makeGuess(uint guess) \n  public\n  notowner\n  lotteryActive\n  isHuman\n  payable \n  returns(bool){\n    require(guess != 0x20,\"cannot be empty\");\n    require(guess<=20,\"number should be between 0 and 20\");\n    require(msg.value == price,\"price should be 1000000\");\n    allholders.push(msg.sender);\n    holders[playerID] = msg.sender;\n    playerID++;\n    allguess.push(guess);\n    Guesses[msg.sender] = guess;\n    Total += msg.value;\n    emit Guess(msg.sender,playerID,guess,msg.value);\n    return true;\n  }       \n      \n    \n  function drawwinner()\n  public \n  onlyowner\n  alreadyDrawn\n  isHuman\n  returns(address[]) {\n      \n    w = uint8(uint256(keccak256(abi.encodePacked(block.timestamp, block.difficulty)))%21);\n    for(uint i = 0; i < allholders.length; i++){\n      if( w == allguess[i] ){\n        winners.push(allholders[i]);\n        count++;\n      }\n    }\n    winnerDrawn = true;\n    return winners;\n  }\n  \n  \n      \n  function distributeReward()\n  public\n  onlyowner\n  lotteryActive\n  {\n    if(count == 0){\n      selfdestruct(owner);\n    }\n    uint winnerreward = (address(this).balance/2)/count;\n    for(uint j = 0;j < winners.length;j++){ \n      winners[j].transfer(winnerreward);\n        \n    }\n    selfdestruct(owner);\n  }\n}\n",
  "sourcePath": "/home/appinventiv/Lot/LotteryDapp/contracts/Lottery.sol",
  "compiler": {
    "name": "solc",
    "version": "0.4.24+commit.e67f0147.Emscripten.clang"
  },
  "schemaVersion": "2.0.1",
  "updatedAt": "2018-11-03T18:07:05.940Z"
}