{
  "contractName": "Lottery",
  "abi": [
    {
      "constant": true,
      "inputs": [],
      "name": "w",
      "outputs": [
        {
          "name": "",
          "type": "uint256"
        }
      ],
      "payable": false,
      "stateMutability": "view",
      "type": "function"
    },
    {
      "constant": true,
      "inputs": [
        {
          "name": "",
          "type": "uint256"
        }
      ],
      "name": "holders",
      "outputs": [
        {
          "name": "",
          "type": "address"
        }
      ],
      "payable": false,
      "stateMutability": "view",
      "type": "function"
    },
    {
      "constant": true,
      "inputs": [
        {
          "name": "",
          "type": "address"
        }
      ],
      "name": "Guesses",
      "outputs": [
        {
          "name": "",
          "type": "uint256"
        }
      ],
      "payable": false,
      "stateMutability": "view",
      "type": "function"
    },
    {
      "constant": true,
      "inputs": [],
      "name": "Total",
      "outputs": [
        {
          "name": "",
          "type": "uint256"
        }
      ],
      "payable": false,
      "stateMutability": "view",
      "type": "function"
    },
    {
      "constant": true,
      "inputs": [
        {
          "name": "",
          "type": "uint256"
        }
      ],
      "name": "allholders",
      "outputs": [
        {
          "name": "",
          "type": "address"
        }
      ],
      "payable": false,
      "stateMutability": "view",
      "type": "function"
    },
    {
      "constant": true,
      "inputs": [
        {
          "name": "",
          "type": "uint256"
        }
      ],
      "name": "winners",
      "outputs": [
        {
          "name": "",
          "type": "address"
        }
      ],
      "payable": false,
      "stateMutability": "view",
      "type": "function"
    },
    {
      "constant": true,
      "inputs": [
        {
          "name": "",
          "type": "uint256"
        }
      ],
      "name": "allguess",
      "outputs": [
        {
          "name": "",
          "type": "uint256"
        }
      ],
      "payable": false,
      "stateMutability": "view",
      "type": "function"
    },
    {
      "inputs": [],
      "payable": false,
      "stateMutability": "nonpayable",
      "type": "constructor"
    },
    {
      "anonymous": false,
      "inputs": [
        {
          "indexed": true,
          "name": "from",
          "type": "address"
        },
        {
          "indexed": true,
          "name": "PlayerID",
          "type": "uint256"
        },
        {
          "indexed": true,
          "name": "_guess",
          "type": "uint256"
        },
        {
          "indexed": false,
          "name": "value",
          "type": "uint256"
        }
      ],
      "name": "Guess",
      "type": "event"
    },
    {
      "constant": false,
      "inputs": [
        {
          "name": "guess",
          "type": "uint256"
        }
      ],
      "name": "makeGuess",
      "outputs": [
        {
          "name": "",
          "type": "bool"
        }
      ],
      "payable": true,
      "stateMutability": "payable",
      "type": "function"
    },
    {
      "constant": false,
      "inputs": [],
      "name": "drawwinner",
      "outputs": [
        {
          "name": "",
          "type": "address[]"
        }
      ],
      "payable": false,
      "stateMutability": "nonpayable",
      "type": "function"
    },
    {
      "constant": false,
      "inputs": [],
      "name": "distributeReward",
      "outputs": [],
      "payable": false,
      "stateMutability": "nonpayable",
      "type": "function"
    }
  ],
  "bytecode": "0x6080604052620f4240600455600060065560006009556000600a60006101000a81548160ff0219169083151502179055506001600a60016101000a81548160ff02191690831515021790555034801561005757600080fd5b50336000806101000a81548173ffffffffffffffffffffffffffffffffffffffff021916908373ffffffffffffffffffffffffffffffffffffffff160217905550610b98806100a76000396000f3006080604052600436106100a4576000357c0100000000000000000000000000000000000000000000000000000000900463ffffffff1680630d051200146100a9578063205c9cc71461011557806322666da6146101405780632a11ced01461017857806359f246a8146101e55780638f73c5ae1461023c5780639257b8f4146102535780639a2ce4771461027e578063a2fb1175146102eb578063c142cbd314610358575b600080fd5b3480156100b557600080fd5b506100be610399565b6040518080602001828103825283818151815260200191508051906020019060200280838360005b838110156101015780820151818401526020810190506100e6565b505050509050019250505060405180910390f35b34801561012157600080fd5b5061012a610653565b6040518082815260200191505060405180910390f35b61015e60048036038101908080359060200190929190505050610659565b604051808215151515815260200191505060405180910390f35b34801561018457600080fd5b506101a3600480360381019080803590602001909291905050506108ab565b604051808273ffffffffffffffffffffffffffffffffffffffff1673ffffffffffffffffffffffffffffffffffffffff16815260200191505060405180910390f35b3480156101f157600080fd5b50610226600480360381019080803573ffffffffffffffffffffffffffffffffffffffff1690602001909291905050506108de565b6040518082815260200191505060405180910390f35b34801561024857600080fd5b506102516108f6565b005b34801561025f57600080fd5b50610268610ac7565b6040518082815260200191505060405180910390f35b34801561028a57600080fd5b506102a960048036038101908080359060200190929190505050610acd565b604051808273ffffffffffffffffffffffffffffffffffffffff1673ffffffffffffffffffffffffffffffffffffffff16815260200191505060405180910390f35b3480156102f757600080fd5b5061031660048036038101908080359060200190929190505050610b0b565b604051808273ffffffffffffffffffffffffffffffffffffffff1673ffffffffffffffffffffffffffffffffffffffff16815260200191505060405180910390f35b34801561036457600080fd5b5061038360048036038101908080359060200190929190505050610b49565b6040518082815260200191505060405180910390f35b606060008060009054906101000a900473ffffffffffffffffffffffffffffffffffffffff1673ffffffffffffffffffffffffffffffffffffffff163373ffffffffffffffffffffffffffffffffffffffff161415156103f857600080fd5b600a60009054906101000a900460ff1615151561041457600080fd5b6015424460405160200180838152602001828152602001925050506040516020818303038152906040526040518082805190602001908083835b602083101515610473578051825260208201915060208101905060208303925061044e565b6001836020036101000a0380198251168184511680821785525050505050509050019150506040518091039020600190048115156104ad57fe5b0660ff16600781905550600090505b6002805490508110156105ab576005818154811015156104d857fe5b9060005260206000200154600754141561059e5760036002828154811015156104fd57fe5b9060005260206000200160009054906101000a900473ffffffffffffffffffffffffffffffffffffffff1690806001815401808255809150509060018203906000526020600020016000909192909190916101000a81548173ffffffffffffffffffffffffffffffffffffffff021916908373ffffffffffffffffffffffffffffffffffffffff160217905550506006600081548092919060010191905055505b80806001019150506104bc565b6001600a60006101000a81548160ff021916908315150217905550600380548060200260200160405190810160405280929190818152602001828054801561064857602002820191906000526020600020905b8160009054906101000a900473ffffffffffffffffffffffffffffffffffffffff1673ffffffffffffffffffffffffffffffffffffffff16815260200190600101908083116105fe575b505050505091505090565b60075481565b60008060009054906101000a900473ffffffffffffffffffffffffffffffffffffffff1673ffffffffffffffffffffffffffffffffffffffff163373ffffffffffffffffffffffffffffffffffffffff16141515156106b757600080fd5b60011515600a60019054906101000a900460ff1615151415156106d957600080fd5b602082141515156106e957600080fd5b601482111515156106f957600080fd5b6004543414151561070957600080fd5b60023390806001815401808255809150509060018203906000526020600020016000909192909190916101000a81548173ffffffffffffffffffffffffffffffffffffffff021916908373ffffffffffffffffffffffffffffffffffffffff1602179055505033600b6000600954815260200190815260200160002060006101000a81548173ffffffffffffffffffffffffffffffffffffffff021916908373ffffffffffffffffffffffffffffffffffffffff160217905550816009543373ffffffffffffffffffffffffffffffffffffffff167f6a2b61f774cffdaa0e8b28eea5fef8e4f8460f4029344bd09c712cf79cc6c02d346040518082815260200191505060405180910390a4600960008154809291906001019190505550600582908060018154018082558091505090600182039060005260206000200160009091929091909150555081600c60003373ffffffffffffffffffffffffffffffffffffffff1673ffffffffffffffffffffffffffffffffffffffff16815260200190815260200160002081905550346008540160088190555060019050919050565b600b6020528060005260406000206000915054906101000a900473ffffffffffffffffffffffffffffffffffffffff1681565b600c6020528060005260406000206000915090505481565b6000806000809054906101000a900473ffffffffffffffffffffffffffffffffffffffff1673ffffffffffffffffffffffffffffffffffffffff163373ffffffffffffffffffffffffffffffffffffffff1614151561095457600080fd5b60011515600a60019054906101000a900460ff16151514151561097657600080fd5b600060065414156109bb576000809054906101000a900473ffffffffffffffffffffffffffffffffffffffff1673ffffffffffffffffffffffffffffffffffffffff16ff5b60065460023073ffffffffffffffffffffffffffffffffffffffff16318115156109e157fe5b048115156109eb57fe5b049150600090505b600380549050811015610a8d57600381815481101515610a0f57fe5b9060005260206000200160009054906101000a900473ffffffffffffffffffffffffffffffffffffffff1673ffffffffffffffffffffffffffffffffffffffff166108fc839081150290604051600060405180830381858888f19350505050158015610a7f573d6000803e3d6000fd5b5080806001019150506109f3565b6000809054906101000a900473ffffffffffffffffffffffffffffffffffffffff1673ffffffffffffffffffffffffffffffffffffffff16ff5b60085481565b600281815481101515610adc57fe5b906000526020600020016000915054906101000a900473ffffffffffffffffffffffffffffffffffffffff1681565b600381815481101515610b1a57fe5b906000526020600020016000915054906101000a900473ffffffffffffffffffffffffffffffffffffffff1681565b600581815481101515610b5857fe5b9060005260206000200160009150905054815600a165627a7a723058202a43ff566b6ac02179b8e433560e4ded6df90962d2deee12ff6d3a67868412720029",
  "source": "pragma solidity ^0.4.22;\n\ncontract Lottery{\n    \n    \n    address owner;\n    address winner;\n    address[] public allholders;\n    address[] public winners;\n    \n    uint price=1000000 wei;\n    uint[] public allguess;\n    uint count=0;\n    uint public w;\n    uint public Total;\n    uint playerID = 0;\n    //uint round = 3 minutes;\n    //uint startround = now + round;\n    \n    bool winnerDrawn = false;\n    bool active = true;\n    \n    \n//-----------------------------------------Mappings----------------------------------------\n    \n\n\n    mapping (uint => address) public holders;      // PlayerID => participant_address\n    mapping (address => uint) public Guesses;      //participant_address => guess\n    \n    \n    \n\n//-----------------------------------------Events----------------------------------------\n    \n    \n    event Guess(\n        address indexed from,\n        uint indexed PlayerID,\n        uint indexed _guess,\n        uint value\n    );\n    \n    \n    \n//-----------------------------------------Modifiers------------------------------------    \n    \n    \n    \n    modifier onlyowner(){\n        require(msg.sender==owner);\n        _;\n    }\n    modifier notowner(){\n        require(msg.sender!=owner);\n        _;\n    }\n    modifier alreadyDrawn(){\n        require(!winnerDrawn);\n        _;\n    }\n    modifier LotteryActive{\n        require(active==true);\n        _;\n    }\n    \n    \n    \n//------------------------------------constructor----------------------------------------------------    \n    \n    \n    \n    constructor() public{\n        owner=msg.sender;\n    //bytes32  winninghash= keccak256(abi.encode(winninghash));\n    }\n    \n    function makeGuess(uint guess) \n    notowner\n    LotteryActive\n    public \n    payable \n    returns(bool){\n        require(guess != 0x20);\n        require(guess<=20);\n        require(msg.value == price);\n        allholders.push(msg.sender);\n        holders[playerID]= msg.sender;\n        emit Guess(msg.sender,playerID,guess,msg.value);\n        playerID++;\n        allguess.push(guess);\n        Guesses[msg.sender]= guess;\n        Total=Total + msg.value;\n        return true;\n    }\n       \n       \n//------------------------------------Public Functions----------------------------------------------------       \n       \n      \n       \n        function drawwinner()\n        public \n        onlyowner\n        alreadyDrawn\n        returns(address[]) {\n            \n            w=uint8(uint256(keccak256(abi.encodePacked(block.timestamp, block.difficulty)))%21);\n            for(uint i=0;i<allholders.length;i++){\n                if( w==allguess[i] ){\n                    winners.push(allholders[i]);\n                    count++;\n                }\n            }\n            winnerDrawn=true;\n            return winners;\n        }\n        \n        \n        \n        function distributeReward()\n        public\n        onlyowner\n        LotteryActive\n        {\n            if(count == 0){\n                selfdestruct(owner);\n            }\n            uint winnerreward= (address(this).balance/2)/count;\n            for(uint j=0;j<winners.length;j++){ \n                winners[j].transfer(winnerreward);\n                \n            }\n            selfdestruct(owner);\n            \n            //    owner.transfer(address(this).balance);\n            //    if (address(this).balance == 0){\n            //        winnerDrawn = false;\n            //        active = true;\n            //        delete w;\n            //        delete Total;\n            //        delete allholders;\n            //   }\n            \n        }\n     }\n",
  "sourcePath": "/home/appinventiv/tru/LotteryTru/contracts/Lottery.sol",
  "compiler": {
    "name": "solc",
    "version": "0.4.24+commit.e67f0147.Emscripten.clang"
  },
  "schemaVersion": "2.0.1",
  "updatedAt": "2018-09-04T07:40:13.787Z"
}