{
  "contractName": "Lottery",
  "abi": [
    {
      "inputs": [],
      "payable": false,
      "stateMutability": "nonpayable",
      "type": "constructor"
    },
    {
      "anonymous": false,
      "inputs": [
        {
          "indexed": true,
          "name": "from",
          "type": "address"
        },
        {
          "indexed": true,
          "name": "PlayerID",
          "type": "uint256"
        },
        {
          "indexed": true,
          "name": "_guess",
          "type": "uint256"
        },
        {
          "indexed": false,
          "name": "value",
          "type": "uint256"
        }
      ],
      "name": "Guess",
      "type": "event"
    },
    {
      "constant": false,
      "inputs": [
        {
          "name": "guess",
          "type": "uint256"
        }
      ],
      "name": "makeGuess",
      "outputs": [
        {
          "name": "",
          "type": "bool"
        }
      ],
      "payable": true,
      "stateMutability": "payable",
      "type": "function"
    },
    {
      "constant": false,
      "inputs": [],
      "name": "drawWinner",
      "outputs": [
        {
          "name": "",
          "type": "address[]"
        }
      ],
      "payable": false,
      "stateMutability": "nonpayable",
      "type": "function"
    },
    {
      "constant": false,
      "inputs": [],
      "name": "distributeReward",
      "outputs": [],
      "payable": false,
      "stateMutability": "nonpayable",
      "type": "function"
    },
    {
      "constant": true,
      "inputs": [],
      "name": "getHolders",
      "outputs": [
        {
          "name": "",
          "type": "address[]"
        }
      ],
      "payable": false,
      "stateMutability": "view",
      "type": "function"
    },
    {
      "constant": true,
      "inputs": [],
      "name": "getWinners",
      "outputs": [
        {
          "name": "",
          "type": "address[]"
        }
      ],
      "payable": false,
      "stateMutability": "view",
      "type": "function"
    },
    {
      "constant": true,
      "inputs": [],
      "name": "getTotalWinners",
      "outputs": [
        {
          "name": "",
          "type": "uint256"
        }
      ],
      "payable": false,
      "stateMutability": "view",
      "type": "function"
    },
    {
      "constant": true,
      "inputs": [],
      "name": "getLuckyNumber",
      "outputs": [
        {
          "name": "",
          "type": "uint256"
        }
      ],
      "payable": false,
      "stateMutability": "view",
      "type": "function"
    },
    {
      "constant": true,
      "inputs": [],
      "name": "getTotalAmount",
      "outputs": [
        {
          "name": "",
          "type": "uint256"
        }
      ],
      "payable": false,
      "stateMutability": "view",
      "type": "function"
    },
    {
      "constant": true,
      "inputs": [
        {
          "name": "playerId",
          "type": "uint256"
        }
      ],
      "name": "getHoldersAddress",
      "outputs": [
        {
          "name": "",
          "type": "address"
        }
      ],
      "payable": false,
      "stateMutability": "view",
      "type": "function"
    },
    {
      "constant": true,
      "inputs": [
        {
          "name": "player",
          "type": "address"
        }
      ],
      "name": "getGuess",
      "outputs": [
        {
          "name": "",
          "type": "uint256"
        }
      ],
      "payable": false,
      "stateMutability": "view",
      "type": "function"
    }
  ],
  "bytecode": "0x608060405234801561001057600080fd5b50336000806101000a81548173ffffffffffffffffffffffffffffffffffffffff021916908373ffffffffffffffffffffffffffffffffffffffff160217905550620f42406004819055506001600a60016101000a81548160ff0219169083151502179055506111ca806100856000396000f3006080604052600436106100a4576000357c0100000000000000000000000000000000000000000000000000000000900463ffffffff16806322666da6146100a95780635fe8e7cc146100e157806365ac43411461014d5780638f73c5ae14610178578063a4208b701461018f578063b2185bb1146101e6578063ceeca98414610252578063d75f76c21461027d578063df15c37e146102ea578063e69f19cd14610356575b600080fd5b6100c760048036038101908080359060200190929190505050610381565b604051808215151515815260200191505060405180910390f35b3480156100ed57600080fd5b506100f66108aa565b6040518080602001828103825283818151815260200191508051906020019060200280838360005b8381101561013957808201518184015260208101905061011e565b505050509050019250505060405180910390f35b34801561015957600080fd5b50610162610938565b6040518082815260200191505060405180910390f35b34801561018457600080fd5b5061018d610942565b005b34801561019b57600080fd5b506101d0600480360381019080803573ffffffffffffffffffffffffffffffffffffffff169060200190929190505050610bf3565b6040518082815260200191505060405180910390f35b3480156101f257600080fd5b506101fb610c3c565b6040518080602001828103825283818151815260200191508051906020019060200280838360005b8381101561023e578082015181840152602081019050610223565b505050509050019250505060405180910390f35b34801561025e57600080fd5b50610267611061565b6040518082815260200191505060405180910390f35b34801561028957600080fd5b506102a86004803603810190808035906020019092919050505061106b565b604051808273ffffffffffffffffffffffffffffffffffffffff1673ffffffffffffffffffffffffffffffffffffffff16815260200191505060405180910390f35b3480156102f657600080fd5b506102ff6110a8565b6040518080602001828103825283818151815260200191508051906020019060200280838360005b83811015610342578082015181840152602081019050610327565b505050509050019250505060405180910390f35b34801561036257600080fd5b5061036b611136565b6040518082815260200191505060405180910390f35b60008060009054906101000a900473ffffffffffffffffffffffffffffffffffffffff1673ffffffffffffffffffffffffffffffffffffffff163373ffffffffffffffffffffffffffffffffffffffff1614151515610448576040517f08c379a00000000000000000000000000000000000000000000000000000000081526004018080602001828103825260148152602001807f6f776e6572206973206e6f7420616c6c6f77656400000000000000000000000081525060200191505060405180910390fd5b60011515600a60019054906101000a900460ff1615151415156104d3576040517f08c379a00000000000000000000000000000000000000000000000000000000081526004018080602001828103825260138152602001807f6c6f7474657279206973206e6f74206f70656e0000000000000000000000000081525060200191505060405180910390fd5b6104f23373ffffffffffffffffffffffffffffffffffffffff16611140565b151515610567576040517f08c379a00000000000000000000000000000000000000000000000000000000081526004018080602001828103825260148152602001807f6f6e6c792068756d616e732063616e20706c617900000000000000000000000081525060200191505060405180910390fd5b602082141515156105e0576040517f08c379a000000000000000000000000000000000000000000000000000000000815260040180806020018281038252600f8152602001807f63616e6e6f7420626520656d707479000000000000000000000000000000000081525060200191505060405180910390fd5b6014821115151561067f576040517f08c379a00000000000000000000000000000000000000000000000000000000081526004018080602001828103825260218152602001807f6e756d6265722073686f756c64206265206265747765656e203020616e64203281526020017f300000000000000000000000000000000000000000000000000000000000000081525060400191505060405180910390fd5b600454341415156106f8576040517f08c379a00000000000000000000000000000000000000000000000000000000081526004018080602001828103825260178152602001807f70726963652073686f756c64206265203130303030303000000000000000000081525060200191505060405180910390fd5b60023390806001815401808255809150509060018203906000526020600020016000909192909190916101000a81548173ffffffffffffffffffffffffffffffffffffffff021916908373ffffffffffffffffffffffffffffffffffffffff1602179055505033600b6000600954815260200190815260200160002060006101000a81548173ffffffffffffffffffffffffffffffffffffffff021916908373ffffffffffffffffffffffffffffffffffffffff1602179055506107c8600160095461115390919063ffffffff16565b50600582908060018154018082558091505090600182039060005260206000200160009091929091909150555081600c60003373ffffffffffffffffffffffffffffffffffffffff1673ffffffffffffffffffffffffffffffffffffffff1681526020019081526020016000208190555061084e3460085461115390919063ffffffff16565b50816009543373ffffffffffffffffffffffffffffffffffffffff167f6a2b61f774cffdaa0e8b28eea5fef8e4f8460f4029344bd09c712cf79cc6c02d346040518082815260200191505060405180910390a460019050919050565b6060600280548060200260200160405190810160405280929190818152602001828054801561092e57602002820191906000526020600020905b8160009054906101000a900473ffffffffffffffffffffffffffffffffffffffff1673ffffffffffffffffffffffffffffffffffffffff16815260200190600101908083116108e4575b5050505050905090565b6000600854905090565b6000806000809054906101000a900473ffffffffffffffffffffffffffffffffffffffff1673ffffffffffffffffffffffffffffffffffffffff163373ffffffffffffffffffffffffffffffffffffffff16141515610a09576040517f08c379a00000000000000000000000000000000000000000000000000000000081526004018080602001828103825260138152602001807f6f6e6c79206f776e65722063616e2063616c6c0000000000000000000000000081525060200191505060405180910390fd5b60011515600a60019054906101000a900460ff161515141515610a94576040517f08c379a00000000000000000000000000000000000000000000000000000000081526004018080602001828103825260138152602001807f6c6f7474657279206973206e6f74206f70656e0000000000000000000000000081525060200191505060405180910390fd5b60006006541415610ad9576000809054906101000a900473ffffffffffffffffffffffffffffffffffffffff1673ffffffffffffffffffffffffffffffffffffffff16ff5b610b18600654610b0a60023073ffffffffffffffffffffffffffffffffffffffff163161117490919063ffffffff16565b61117490919063ffffffff16565b9150600090505b600380549050811015610bb957600381815481101515610b3b57fe5b9060005260206000200160009054906101000a900473ffffffffffffffffffffffffffffffffffffffff1673ffffffffffffffffffffffffffffffffffffffff166108fc839081150290604051600060405180830381858888f19350505050158015610bab573d6000803e3d6000fd5b508080600101915050610b1f565b6000809054906101000a900473ffffffffffffffffffffffffffffffffffffffff1673ffffffffffffffffffffffffffffffffffffffff16ff5b6000600c60008373ffffffffffffffffffffffffffffffffffffffff1673ffffffffffffffffffffffffffffffffffffffff168152602001908152602001600020549050919050565b606060008060009054906101000a900473ffffffffffffffffffffffffffffffffffffffff1673ffffffffffffffffffffffffffffffffffffffff163373ffffffffffffffffffffffffffffffffffffffff16141515610d04576040517f08c379a00000000000000000000000000000000000000000000000000000000081526004018080602001828103825260138152602001807f6f6e6c79206f776e65722063616e2063616c6c0000000000000000000000000081525060200191505060405180910390fd5b600a60009054906101000a900460ff16151515610d89576040517f08c379a00000000000000000000000000000000000000000000000000000000081526004018080602001828103825260188152602001807f77696e6e65722068617320616c726561647920447261776e000000000000000081525060200191505060405180910390fd5b610da83373ffffffffffffffffffffffffffffffffffffffff16611140565b151515610e1d576040517f08c379a00000000000000000000000000000000000000000000000000000000081526004018080602001828103825260148152602001807f6f6e6c792068756d616e732063616e20706c617900000000000000000000000081525060200191505060405180910390fd5b6015424460405160200180838152602001828152602001925050506040516020818303038152906040526040518082805190602001908083835b602083101515610e7c5780518252602082019150602081019050602083039250610e57565b6001836020036101000a038019825116818451168082178552505050505050905001915050604051809103902060019004811515610eb657fe5b0660ff16600781905550600090505b600280549050811015610fb957600581815481101515610ee157fe5b90600052602060002001546007541415610fac576003600282815481101515610f0657fe5b9060005260206000200160009054906101000a900473ffffffffffffffffffffffffffffffffffffffff1690806001815401808255809150509060018203906000526020600020016000909192909190916101000a81548173ffffffffffffffffffffffffffffffffffffffff021916908373ffffffffffffffffffffffffffffffffffffffff16021790555050610faa600160065461115390919063ffffffff16565b505b8080600101915050610ec5565b6001600a60006101000a81548160ff021916908315150217905550600380548060200260200160405190810160405280929190818152602001828054801561105657602002820191906000526020600020905b8160009054906101000a900473ffffffffffffffffffffffffffffffffffffffff1673ffffffffffffffffffffffffffffffffffffffff168152602001906001019080831161100c575b505050505091505090565b6000600654905090565b6000600b600083815260200190815260200160002060009054906101000a900473ffffffffffffffffffffffffffffffffffffffff169050919050565b6060600380548060200260200160405190810160405280929190818152602001828054801561112c57602002820191906000526020600020905b8160009054906101000a900473ffffffffffffffffffffffffffffffffffffffff1673ffffffffffffffffffffffffffffffffffffffff16815260200190600101908083116110e2575b5050505050905090565b6000600754905090565b600080823b905060008111915050919050565b600080828401905083811015151561116a57600080fd5b8091505092915050565b60008060008311151561118657600080fd5b828481151561119157fe5b04905080915050929150505600a165627a7a72305820db557c19f0f162f8b761cf5d8d1c5fd335ec738f430f9537d51cf21afbd2d7a50029",
  "source": "pragma solidity ^0.4.24;\n\nimport \"./lib/Address.sol\";\nimport \"./lib/SafeMath.sol\";\n\ncontract Lottery{\n    \n  \n  address owner;\n  address winner;\n  address[] allHolders;\n  address[] winners;\n  using Address for address;\n  \n  uint price;\n  uint[] allGuess;\n  uint totalWinners;\n  uint luckyNumber;\n  uint totalAmount;\n  uint playerID;\n  using SafeMath for uint;\n  \n  bool winnerDrawn;\n  bool active;\n  \n    \n//-----------------------------------------Mappings----------------------------------------\n    \n\n\n  mapping (uint => address) holders;      // PlayerID => participant_address\n  mapping (address => uint) Guesses;      //participant_address => guess\n  \n    \n\n//-----------------------------------------Events----------------------------------------\n    \n    \n  event Guess(\n      address indexed from,\n      uint indexed PlayerID,\n      uint indexed _guess,\n      uint value\n  );\n    \n    \n//-----------------------------------------Modifiers------------------------------------    \n    \n    \n    \n  modifier onlyowner(){\n    require(msg.sender == owner,\"only owner can call\");\n    _;\n  }\n  modifier notowner(){\n    require(msg.sender != owner,\"owner is not allowed\");\n    _;\n  }\n  modifier alreadyDrawn(){\n    require(!winnerDrawn,\"winner has already Drawn\");\n    _;\n  }\n  modifier lotteryActive{\n    require(active == true,\"lottery is not open\");\n    _;\n  }\n  modifier isHuman() {\n    require(!msg.sender.isContract(),\"only humans can play\");\n    _;\n  }\n    \n    \n//------------------------------------constructor----------------------------------------------------    \n    \n    \n    \n  constructor() public{\n    owner = msg.sender;\n    price = 1000000 wei;\n    active = true;\n  }\n\n    \n//------------------------------------Public Functions----------------------------------------------------       \n\n\n  function makeGuess(uint guess) \n  public\n  notowner\n  lotteryActive\n  isHuman\n  payable \n  returns(bool){\n    require(guess != 0x20,\"cannot be empty\");\n    require(guess <= 20,\"number should be between 0 and 20\");\n    require(msg.value == price,\"price should be 1000000\");\n    allHolders.push(msg.sender);\n    holders[playerID] = msg.sender;\n    playerID.add(1);\n    allGuess.push(guess);\n    Guesses[msg.sender] = guess;\n    totalAmount.add(msg.value);\n    emit Guess(msg.sender,playerID,guess,msg.value);\n    return true;\n  }       \n      \n    \n  function drawWinner()\n  public \n  onlyowner\n  alreadyDrawn\n  isHuman\n  returns(address[]) {\n      \n    luckyNumber = uint8(uint256(keccak256(abi.encodePacked(block.timestamp, block.difficulty)))%21);\n    for(uint i = 0; i < allHolders.length; i++){\n      if( luckyNumber == allGuess[i] ){\n        winners.push(allHolders[i]);\n        totalWinners.add(1);\n      }\n    }\n    winnerDrawn = true;\n    return winners;\n  }\n  \n      \n  function distributeReward()\n  public  \n  onlyowner\n  lotteryActive\n  {\n    if(totalWinners == 0){\n      selfdestruct(owner);\n    }\n    uint winnerreward = (address(this).balance.div(2)).div(totalWinners);\n    for(uint j = 0;j < winners.length;j++){ \n      winners[j].transfer(winnerreward);\n        \n    }\n    selfdestruct(owner);\n  }\n  \n  \n//------------------------------------getters-----------------------------------------------\n\n\n\n  function getHolders() public view returns(address[]) {\n    return allHolders;\n  }\n  \n  function getWinners() public view returns(address[]) {\n    return winners;\n  }\n  \n  function getTotalWinners() public view returns(uint) {\n    return totalWinners;\n  }\n  \n  function getLuckyNumber() public view returns(uint) {\n    return luckyNumber;\n  }\n  \n  function getTotalAmount() public view returns(uint) {\n    return totalAmount;\n  }\n  \n  function getHoldersAddress(uint playerId) public view returns(address) {\n    return holders[playerId];\n  }\n  \n  function getGuess(address player) public view returns(uint) {\n    return Guesses[player];\n  }  \n}\n",
  "sourcePath": "/home/appinventiv/Lot/LotteryDapp/contracts/Lottery.sol",
  "compiler": {
    "name": "solc",
    "version": "0.4.24+commit.e67f0147.Emscripten.clang"
  },
  "schemaVersion": "2.0.1",
  "updatedAt": "2018-11-06T06:48:45.368Z"
}