{
  "contractName": "Rlottery",
  "abi": [
    {
      "constant": true,
      "inputs": [],
      "name": "active",
      "outputs": [
        {
          "name": "",
          "type": "bool"
        }
      ],
      "payable": false,
      "stateMutability": "view",
      "type": "function"
    },
    {
      "constant": true,
      "inputs": [
        {
          "name": "",
          "type": "uint256"
        }
      ],
      "name": "holders",
      "outputs": [
        {
          "name": "",
          "type": "address"
        }
      ],
      "payable": false,
      "stateMutability": "view",
      "type": "function"
    },
    {
      "constant": true,
      "inputs": [],
      "name": "total",
      "outputs": [
        {
          "name": "",
          "type": "uint256"
        }
      ],
      "payable": false,
      "stateMutability": "view",
      "type": "function"
    },
    {
      "constant": true,
      "inputs": [],
      "name": "playerID",
      "outputs": [
        {
          "name": "",
          "type": "uint256"
        }
      ],
      "payable": false,
      "stateMutability": "view",
      "type": "function"
    },
    {
      "constant": true,
      "inputs": [
        {
          "name": "",
          "type": "uint256"
        }
      ],
      "name": "allHolders",
      "outputs": [
        {
          "name": "",
          "type": "address"
        }
      ],
      "payable": false,
      "stateMutability": "view",
      "type": "function"
    },
    {
      "constant": true,
      "inputs": [
        {
          "name": "",
          "type": "address"
        }
      ],
      "name": "Guesses",
      "outputs": [
        {
          "name": "",
          "type": "uint256"
        }
      ],
      "payable": false,
      "stateMutability": "view",
      "type": "function"
    },
    {
      "constant": true,
      "inputs": [],
      "name": "winnerDrawn",
      "outputs": [
        {
          "name": "",
          "type": "bool"
        }
      ],
      "payable": false,
      "stateMutability": "view",
      "type": "function"
    },
    {
      "constant": true,
      "inputs": [
        {
          "name": "",
          "type": "uint256"
        }
      ],
      "name": "winners",
      "outputs": [
        {
          "name": "",
          "type": "address"
        }
      ],
      "payable": false,
      "stateMutability": "view",
      "type": "function"
    },
    {
      "constant": true,
      "inputs": [],
      "name": "luckyNumber",
      "outputs": [
        {
          "name": "",
          "type": "uint256"
        }
      ],
      "payable": false,
      "stateMutability": "view",
      "type": "function"
    },
    {
      "constant": true,
      "inputs": [
        {
          "name": "",
          "type": "uint256"
        }
      ],
      "name": "allGuess",
      "outputs": [
        {
          "name": "",
          "type": "uint256"
        }
      ],
      "payable": false,
      "stateMutability": "view",
      "type": "function"
    },
    {
      "inputs": [],
      "payable": false,
      "stateMutability": "nonpayable",
      "type": "constructor"
    },
    {
      "anonymous": false,
      "inputs": [
        {
          "indexed": true,
          "name": "from",
          "type": "address"
        },
        {
          "indexed": true,
          "name": "PlayerID",
          "type": "uint256"
        },
        {
          "indexed": true,
          "name": "_guess",
          "type": "uint256"
        },
        {
          "indexed": false,
          "name": "value",
          "type": "uint256"
        }
      ],
      "name": "Guess",
      "type": "event"
    },
    {
      "anonymous": false,
      "inputs": [
        {
          "indexed": true,
          "name": "winners",
          "type": "address[]"
        },
        {
          "indexed": true,
          "name": "winningAmount",
          "type": "uint256"
        }
      ],
      "name": "Distribution",
      "type": "event"
    },
    {
      "constant": false,
      "inputs": [
        {
          "name": "guess",
          "type": "uint256"
        }
      ],
      "name": "makeGuess",
      "outputs": [
        {
          "name": "",
          "type": "bool"
        }
      ],
      "payable": true,
      "stateMutability": "payable",
      "type": "function"
    },
    {
      "constant": false,
      "inputs": [],
      "name": "drawWinner",
      "outputs": [
        {
          "name": "",
          "type": "address[]"
        }
      ],
      "payable": false,
      "stateMutability": "nonpayable",
      "type": "function"
    }
  ],
  "bytecode": "0x60806040526000600960006101000a81548160ff0219169083151502179055506001600960016101000a81548160ff02191690831515021790555034801561004657600080fd5b50336000806101000a81548173ffffffffffffffffffffffffffffffffffffffff021916908373ffffffffffffffffffffffffffffffffffffffff160217905550620f4240600381905550610ebb806100a06000396000f3006080604052600436106100ba576000357c0100000000000000000000000000000000000000000000000000000000900463ffffffff16806302fb0c5e146100bf57806322666da6146100ee5780632a11ced0146101265780632ddbd13a146101935780633adab4ee146101be57806346fee28f146101e957806359f246a81461025657806361c4c997146102ad578063a2fb1175146102dc578063b2185bb114610349578063bf205ebc146103b5578063e83f1644146103e0575b600080fd5b3480156100cb57600080fd5b506100d4610421565b604051808215151515815260200191505060405180910390f35b61010c60048036038101908080359060200190929190505050610434565b604051808215151515815260200191505060405180910390f35b34801561013257600080fd5b506101516004803603810190808035906020019092919050505061094d565b604051808273ffffffffffffffffffffffffffffffffffffffff1673ffffffffffffffffffffffffffffffffffffffff16815260200191505060405180910390f35b34801561019f57600080fd5b506101a8610980565b6040518082815260200191505060405180910390f35b3480156101ca57600080fd5b506101d3610986565b6040518082815260200191505060405180910390f35b3480156101f557600080fd5b506102146004803603810190808035906020019092919050505061098c565b604051808273ffffffffffffffffffffffffffffffffffffffff1673ffffffffffffffffffffffffffffffffffffffff16815260200191505060405180910390f35b34801561026257600080fd5b50610297600480360381019080803573ffffffffffffffffffffffffffffffffffffffff1690602001909291905050506109ca565b6040518082815260200191505060405180910390f35b3480156102b957600080fd5b506102c26109e2565b604051808215151515815260200191505060405180910390f35b3480156102e857600080fd5b50610307600480360381019080803590602001909291905050506109f5565b604051808273ffffffffffffffffffffffffffffffffffffffff1673ffffffffffffffffffffffffffffffffffffffff16815260200191505060405180910390f35b34801561035557600080fd5b5061035e610a33565b6040518080602001828103825283818151815260200191508051906020019060200280838360005b838110156103a1578082015181840152602081019050610386565b505050509050019250505060405180910390f35b3480156103c157600080fd5b506103ca610e53565b6040518082815260200191505060405180910390f35b3480156103ec57600080fd5b5061040b60048036038101908080359060200190929190505050610e59565b6040518082815260200191505060405180910390f35b600960019054906101000a900460ff1681565b60008060009054906101000a900473ffffffffffffffffffffffffffffffffffffffff1673ffffffffffffffffffffffffffffffffffffffff163373ffffffffffffffffffffffffffffffffffffffff16141515156104fb576040517f08c379a00000000000000000000000000000000000000000000000000000000081526004018080602001828103825260148152602001807f6f776e6572206973206e6f7420616c6c6f77656400000000000000000000000081525060200191505060405180910390fd5b60011515600960019054906101000a900460ff161515141515610586576040517f08c379a00000000000000000000000000000000000000000000000000000000081526004018080602001828103825260138152602001807f6c6f7474657279206973206e6f74206f70656e0000000000000000000000000081525060200191505060405180910390fd5b6105a53373ffffffffffffffffffffffffffffffffffffffff16610e7c565b15151561061a576040517f08c379a00000000000000000000000000000000000000000000000000000000081526004018080602001828103825260148152602001807f6f6e6c792068756d616e732063616e20706c617900000000000000000000000081525060200191505060405180910390fd5b60208214151515610693576040517f08c379a000000000000000000000000000000000000000000000000000000000815260040180806020018281038252600f8152602001807f63616e6e6f7420626520656d707479000000000000000000000000000000000081525060200191505060405180910390fd5b60148211151515610732576040517f08c379a00000000000000000000000000000000000000000000000000000000081526004018080602001828103825260218152602001807f6e756d6265722073686f756c64206265206265747765656e203020616e64203281526020017f300000000000000000000000000000000000000000000000000000000000000081525060400191505060405180910390fd5b600354341415156107ab576040517f08c379a00000000000000000000000000000000000000000000000000000000081526004018080602001828103825260178152602001807f70726963652073686f756c64206265203130303030303000000000000000000081525060200191505060405180910390fd5b60013390806001815401808255809150509060018203906000526020600020016000909192909190916101000a81548173ffffffffffffffffffffffffffffffffffffffff021916908373ffffffffffffffffffffffffffffffffffffffff1602179055505033600a6000600854815260200190815260200160002060006101000a81548173ffffffffffffffffffffffffffffffffffffffff021916908373ffffffffffffffffffffffffffffffffffffffff160217905550816008543373ffffffffffffffffffffffffffffffffffffffff167f6a2b61f774cffdaa0e8b28eea5fef8e4f8460f4029344bd09c712cf79cc6c02d346040518082815260200191505060405180910390a4600860008154809291906001019190505550600482908060018154018082558091505090600182039060005260206000200160009091929091909150555081600b60003373ffffffffffffffffffffffffffffffffffffffff1673ffffffffffffffffffffffffffffffffffffffff16815260200190815260200160002081905550346007540160078190555060019050919050565b600a6020528060005260406000206000915054906101000a900473ffffffffffffffffffffffffffffffffffffffff1681565b60075481565b60085481565b60018181548110151561099b57fe5b906000526020600020016000915054906101000a900473ffffffffffffffffffffffffffffffffffffffff1681565b600b6020528060005260406000206000915090505481565b600960009054906101000a900460ff1681565b600281815481101515610a0457fe5b906000526020600020016000915054906101000a900473ffffffffffffffffffffffffffffffffffffffff1681565b606060008060009054906101000a900473ffffffffffffffffffffffffffffffffffffffff1673ffffffffffffffffffffffffffffffffffffffff163373ffffffffffffffffffffffffffffffffffffffff16141515610afb576040517f08c379a00000000000000000000000000000000000000000000000000000000081526004018080602001828103825260138152602001807f6f6e6c79206f776e65722063616e2063616c6c0000000000000000000000000081525060200191505060405180910390fd5b600960009054906101000a900460ff16151515610b80576040517f08c379a00000000000000000000000000000000000000000000000000000000081526004018080602001828103825260188152602001807f77696e6e65722068617320616c726561647920447261776e000000000000000081525060200191505060405180910390fd5b610b9f3373ffffffffffffffffffffffffffffffffffffffff16610e7c565b151515610c14576040517f08c379a00000000000000000000000000000000000000000000000000000000081526004018080602001828103825260148152602001807f6f6e6c792068756d616e732063616e20706c617900000000000000000000000081525060200191505060405180910390fd5b6015424460405160200180838152602001828152602001925050506040516020818303038152906040526040518082805190602001908083835b602083101515610c735780518252602082019150602081019050602083039250610c4e565b6001836020036101000a038019825116818451168082178552505050505050905001915050604051809103902060019004811515610cad57fe5b0660ff16600681905550600090505b600180549050811015610dab57600481815481101515610cd857fe5b90600052602060002001546006541415610d9e576002600182815481101515610cfd57fe5b9060005260206000200160009054906101000a900473ffffffffffffffffffffffffffffffffffffffff1690806001815401808255809150509060018203906000526020600020016000909192909190916101000a81548173ffffffffffffffffffffffffffffffffffffffff021916908373ffffffffffffffffffffffffffffffffffffffff160217905550506005600081548092919060010191905055505b8080600101915050610cbc565b6001600960006101000a81548160ff0219169083151502179055506002805480602002602001604051908101604052809291908181526020018280548015610e4857602002820191906000526020600020905b8160009054906101000a900473ffffffffffffffffffffffffffffffffffffffff1673ffffffffffffffffffffffffffffffffffffffff1681526020019060010190808311610dfe575b505050505091505090565b60065481565b600481815481101515610e6857fe5b906000526020600020016000915090505481565b600080823b9050600081119150509190505600a165627a7a72305820bbd04e719339b0114743793253f60c07c4d09a3fdf4cbe57eea73418065f91dd0029",
  "source": "pragma solidity ^0.4.24;\n\nimport \"./lib/Address.sol\";\n\ncontract Rlottery\n{\n  address owner;\n  address[] public allHolders;\n  address[] public winners;\n  \n  uint price;\n  uint[] public allGuess;\n  uint count;\n  uint public luckyNumber;\n  uint public total;\n  uint public playerID;\n\n  using Address for address;\n  bool public winnerDrawn = false;\n  bool public active = true;\n  \n    \n//-----------------------------------------Mappings----------------------------------------\n    \n\n\n  mapping (uint => address) public holders;      // PlayerID => participant_address\n  mapping (address => uint) public Guesses;      //participant_address => guess\n    \n    \n    \n\n//-----------------------------------------Events----------------------------------------\n    \n    \n  event Guess(\n      address indexed from,\n      uint indexed PlayerID,\n      uint indexed _guess,\n      uint value\n  );\n  event Distribution(\n      address[] indexed winners,\n      uint indexed winningAmount\n  );\n    \n    \n//-----------------------------------------Modifiers------------------------------------    \n    \n    \n    \n  modifier onlyowner(){\n    require(msg.sender == owner,\"only owner can call\");\n    _;\n  }\n  modifier notowner(){\n    require(msg.sender != owner,\"owner is not allowed\");\n    _;\n  }\n  modifier alreadyDrawn(){\n    require(!winnerDrawn,\"winner has already Drawn\");\n    _;\n  }\n  modifier lotteryActive{\n    require(active == true,\"lottery is not open\");\n    _;\n  }\n  modifier isHuman() {\n    require(!msg.sender.isContract(),\"only humans can play\");\n    _;\n  }\n    \n    \n    \n//------------------------------------constructor----------------------------------------------------    \n    \n    \n    \n  constructor() public {\n    owner = msg.sender;\n    price = 1000000 wei;\n  }\n    \n    \n//------------------------------------Public Functions----------------------------------------------------       \n\n\n  function makeGuess(uint guess) \n  public\n  notowner\n  lotteryActive\n  isHuman\n  payable \n  returns(bool){\n    require(guess != 0x20,\"cannot be empty\");\n    require(guess <= 20,\"number should be between 0 and 20\");\n    require(msg.value == price,\"price should be 1000000\");\n    allHolders.push(msg.sender);\n    holders[playerID] = msg.sender;\n    emit Guess(msg.sender,playerID,guess,msg.value);\n    playerID++;\n    allGuess.push(guess);\n    Guesses[msg.sender] = guess;\n    total = total + msg.value;\n    return true;\n  }\n             \n  function drawWinner()\n  public \n  onlyowner\n  alreadyDrawn\n  isHuman\n  returns(address[]) {\n      \n    luckyNumber = uint8(uint256(keccak256(abi.encodePacked(block.timestamp, block.difficulty)))%21);\n    for(uint i = 0;i < allHolders.length;i++){\n      if( luckyNumber == allGuess[i] ){\n        winners.push(allHolders[i]);\n        count++;\n      }\n    }\n    winnerDrawn = true;\n    return winners;\n  }\n            \n  function distributeReward()\n  internal\n  onlyowner\n  lotteryActive\n  {\n    if(count == 0){\n      DeleteAll();\n      owner.transfer(address(this).balance);\n      return;    \n    }\n    uint winnerReward = (address(this).balance/2)/count;\n    for(uint j = 0;j < winners.length; j++){ \n      winners[j].transfer(winnerReward);\n    }\n    DeleteAll();\n    owner.transfer(address(this).balance);\n    emit Distribution(winners,winnerReward);\n    return;\n  }\n        \n        \n//-----------------------------------------Delete all variables to play next round-----------------------------\n\n\n  function DeleteAll() \n  internal\n  {                    \n    winnerDrawn = false;\n    active = true;\n    delete luckyNumber;\n    delete total;\n    delete allHolders;\n    delete count;\n    delete winners;\n    delete allGuess;\n    delete total;\n    delete playerID;\n  }            \n}\n     \n",
  "sourcePath": "/home/appinventiv/Lot/LotteryDapp/contracts/Rlottery.sol",
  "compiler": {
    "name": "solc",
    "version": "0.4.24+commit.e67f0147.Emscripten.clang"
  },
  "schemaVersion": "2.0.1",
  "updatedAt": "2018-11-06T06:48:45.555Z"
}