{
  "contractName": "Rlottery",
  "abi": [
    {
      "constant": true,
      "inputs": [],
      "name": "active",
      "outputs": [
        {
          "name": "",
          "type": "bool"
        }
      ],
      "payable": false,
      "stateMutability": "view",
      "type": "function"
    },
    {
      "constant": true,
      "inputs": [
        {
          "name": "",
          "type": "uint256"
        }
      ],
      "name": "holders",
      "outputs": [
        {
          "name": "",
          "type": "address"
        }
      ],
      "payable": false,
      "stateMutability": "view",
      "type": "function"
    },
    {
      "constant": true,
      "inputs": [],
      "name": "playerID",
      "outputs": [
        {
          "name": "",
          "type": "uint256"
        }
      ],
      "payable": false,
      "stateMutability": "view",
      "type": "function"
    },
    {
      "constant": true,
      "inputs": [
        {
          "name": "",
          "type": "address"
        }
      ],
      "name": "Guesses",
      "outputs": [
        {
          "name": "",
          "type": "uint256"
        }
      ],
      "payable": false,
      "stateMutability": "view",
      "type": "function"
    },
    {
      "constant": true,
      "inputs": [],
      "name": "winnerDrawn",
      "outputs": [
        {
          "name": "",
          "type": "bool"
        }
      ],
      "payable": false,
      "stateMutability": "view",
      "type": "function"
    },
    {
      "constant": true,
      "inputs": [],
      "name": "Total",
      "outputs": [
        {
          "name": "",
          "type": "uint256"
        }
      ],
      "payable": false,
      "stateMutability": "view",
      "type": "function"
    },
    {
      "constant": true,
      "inputs": [
        {
          "name": "",
          "type": "uint256"
        }
      ],
      "name": "allholders",
      "outputs": [
        {
          "name": "",
          "type": "address"
        }
      ],
      "payable": false,
      "stateMutability": "view",
      "type": "function"
    },
    {
      "constant": true,
      "inputs": [
        {
          "name": "",
          "type": "uint256"
        }
      ],
      "name": "winners",
      "outputs": [
        {
          "name": "",
          "type": "address"
        }
      ],
      "payable": false,
      "stateMutability": "view",
      "type": "function"
    },
    {
      "constant": true,
      "inputs": [
        {
          "name": "",
          "type": "uint256"
        }
      ],
      "name": "allguess",
      "outputs": [
        {
          "name": "",
          "type": "uint256"
        }
      ],
      "payable": false,
      "stateMutability": "view",
      "type": "function"
    },
    {
      "constant": true,
      "inputs": [],
      "name": "LuckyNumber",
      "outputs": [
        {
          "name": "",
          "type": "uint256"
        }
      ],
      "payable": false,
      "stateMutability": "view",
      "type": "function"
    },
    {
      "inputs": [],
      "payable": false,
      "stateMutability": "nonpayable",
      "type": "constructor"
    },
    {
      "anonymous": false,
      "inputs": [
        {
          "indexed": true,
          "name": "from",
          "type": "address"
        },
        {
          "indexed": true,
          "name": "PlayerID",
          "type": "uint256"
        },
        {
          "indexed": true,
          "name": "_guess",
          "type": "uint256"
        },
        {
          "indexed": false,
          "name": "value",
          "type": "uint256"
        }
      ],
      "name": "Guess",
      "type": "event"
    },
    {
      "constant": false,
      "inputs": [
        {
          "name": "guess",
          "type": "uint256"
        }
      ],
      "name": "makeGuess",
      "outputs": [
        {
          "name": "",
          "type": "bool"
        }
      ],
      "payable": true,
      "stateMutability": "payable",
      "type": "function"
    },
    {
      "constant": false,
      "inputs": [],
      "name": "drawwinner",
      "outputs": [
        {
          "name": "",
          "type": "address[]"
        }
      ],
      "payable": false,
      "stateMutability": "nonpayable",
      "type": "function"
    }
  ],
  "bytecode": "0x6080604052620f4240600355600060055560006008556000600960006101000a81548160ff0219169083151502179055506001600960016101000a81548160ff02191690831515021790555034801561005757600080fd5b50336000806101000a81548173ffffffffffffffffffffffffffffffffffffffff021916908373ffffffffffffffffffffffffffffffffffffffff160217905550610a7b806100a76000396000f3006080604052600436106100ba576000357c0100000000000000000000000000000000000000000000000000000000900463ffffffff16806302fb0c5e146100bf5780630d051200146100ee57806322666da61461015a5780632a11ced0146101925780633adab4ee146101ff57806359f246a81461022a57806361c4c997146102815780639257b8f4146102b05780639a2ce477146102db578063a2fb117514610348578063c142cbd3146103b5578063cbf7642a146103f6575b600080fd5b3480156100cb57600080fd5b506100d4610421565b604051808215151515815260200191505060405180910390f35b3480156100fa57600080fd5b50610103610434565b6040518080602001828103825283818151815260200191508051906020019060200280838360005b8381101561014657808201518184015260208101905061012b565b505050509050019250505060405180910390f35b610178600480360381019080803590602001909291905050506106ee565b604051808215151515815260200191505060405180910390f35b34801561019e57600080fd5b506101bd60048036038101908080359060200190929190505050610940565b604051808273ffffffffffffffffffffffffffffffffffffffff1673ffffffffffffffffffffffffffffffffffffffff16815260200191505060405180910390f35b34801561020b57600080fd5b50610214610973565b6040518082815260200191505060405180910390f35b34801561023657600080fd5b5061026b600480360381019080803573ffffffffffffffffffffffffffffffffffffffff169060200190929190505050610979565b6040518082815260200191505060405180910390f35b34801561028d57600080fd5b50610296610991565b604051808215151515815260200191505060405180910390f35b3480156102bc57600080fd5b506102c56109a4565b6040518082815260200191505060405180910390f35b3480156102e757600080fd5b50610306600480360381019080803590602001909291905050506109aa565b604051808273ffffffffffffffffffffffffffffffffffffffff1673ffffffffffffffffffffffffffffffffffffffff16815260200191505060405180910390f35b34801561035457600080fd5b50610373600480360381019080803590602001909291905050506109e8565b604051808273ffffffffffffffffffffffffffffffffffffffff1673ffffffffffffffffffffffffffffffffffffffff16815260200191505060405180910390f35b3480156103c157600080fd5b506103e060048036038101908080359060200190929190505050610a26565b6040518082815260200191505060405180910390f35b34801561040257600080fd5b5061040b610a49565b6040518082815260200191505060405180910390f35b600960019054906101000a900460ff1681565b606060008060009054906101000a900473ffffffffffffffffffffffffffffffffffffffff1673ffffffffffffffffffffffffffffffffffffffff163373ffffffffffffffffffffffffffffffffffffffff1614151561049357600080fd5b600960009054906101000a900460ff161515156104af57600080fd5b6015424460405160200180838152602001828152602001925050506040516020818303038152906040526040518082805190602001908083835b60208310151561050e57805182526020820191506020810190506020830392506104e9565b6001836020036101000a03801982511681845116808217855250505050505090500191505060405180910390206001900481151561054857fe5b0660ff16600681905550600090505b6001805490508110156106465760048181548110151561057357fe5b9060005260206000200154600654141561063957600260018281548110151561059857fe5b9060005260206000200160009054906101000a900473ffffffffffffffffffffffffffffffffffffffff1690806001815401808255809150509060018203906000526020600020016000909192909190916101000a81548173ffffffffffffffffffffffffffffffffffffffff021916908373ffffffffffffffffffffffffffffffffffffffff160217905550506005600081548092919060010191905055505b8080600101915050610557565b6001600960006101000a81548160ff02191690831515021790555060028054806020026020016040519081016040528092919081815260200182805480156106e357602002820191906000526020600020905b8160009054906101000a900473ffffffffffffffffffffffffffffffffffffffff1673ffffffffffffffffffffffffffffffffffffffff1681526020019060010190808311610699575b505050505091505090565b60008060009054906101000a900473ffffffffffffffffffffffffffffffffffffffff1673ffffffffffffffffffffffffffffffffffffffff163373ffffffffffffffffffffffffffffffffffffffff161415151561074c57600080fd5b60011515600960019054906101000a900460ff16151514151561076e57600080fd5b6020821415151561077e57600080fd5b6014821115151561078e57600080fd5b6003543414151561079e57600080fd5b60013390806001815401808255809150509060018203906000526020600020016000909192909190916101000a81548173ffffffffffffffffffffffffffffffffffffffff021916908373ffffffffffffffffffffffffffffffffffffffff1602179055505033600a6000600854815260200190815260200160002060006101000a81548173ffffffffffffffffffffffffffffffffffffffff021916908373ffffffffffffffffffffffffffffffffffffffff160217905550816008543373ffffffffffffffffffffffffffffffffffffffff167f6a2b61f774cffdaa0e8b28eea5fef8e4f8460f4029344bd09c712cf79cc6c02d346040518082815260200191505060405180910390a4600860008154809291906001019190505550600482908060018154018082558091505090600182039060005260206000200160009091929091909150555081600b60003373ffffffffffffffffffffffffffffffffffffffff1673ffffffffffffffffffffffffffffffffffffffff16815260200190815260200160002081905550346007540160078190555060019050919050565b600a6020528060005260406000206000915054906101000a900473ffffffffffffffffffffffffffffffffffffffff1681565b60085481565b600b6020528060005260406000206000915090505481565b600960009054906101000a900460ff1681565b60075481565b6001818154811015156109b957fe5b906000526020600020016000915054906101000a900473ffffffffffffffffffffffffffffffffffffffff1681565b6002818154811015156109f757fe5b906000526020600020016000915054906101000a900473ffffffffffffffffffffffffffffffffffffffff1681565b600481815481101515610a3557fe5b906000526020600020016000915090505481565b600654815600a165627a7a72305820a6ee639465d83ece6f8341d5eb73a494e58a3efbeb9dd2a0e37e8aadcbcd4e9e0029",
  "source": "contract Rlottery\n{\n    address owner;\n    address[] public allholders;\n    address[] public winners;\n    \n    uint price=1000000 wei;\n    uint[] public allguess;\n    uint  count=0;\n    uint public LuckyNumber;\n    uint public Total;\n    uint public playerID = 0;\n \n    bool public winnerDrawn = false;\n    bool public active = true;\n    \n    \n//-----------------------------------------Mappings----------------------------------------\n    \n\n\n    mapping (uint => address) public holders;      // PlayerID => participant_address\n    mapping (address => uint) public Guesses;      //participant_address => guess\n    \n    \n    \n\n//-----------------------------------------Events----------------------------------------\n    \n    \n    event Guess(\n        address indexed from,\n        uint indexed PlayerID,\n        uint indexed _guess,\n        uint value\n    );\n    \n    \n    \n//-----------------------------------------Modifiers------------------------------------    \n    \n    \n    \n    modifier onlyowner(){\n        require(msg.sender==owner);\n        _;\n    }\n    modifier notowner(){\n        require(msg.sender!=owner);\n        _;\n    }\n    modifier alreadyDrawn(){\n        require(!winnerDrawn);\n        _;\n    }\n    modifier LotteryActive{\n        require(active==true);\n        _;\n    }\n    \n    \n    \n//------------------------------------constructor----------------------------------------------------    \n    \n    \n    \n    constructor() public{\n        owner=msg.sender;\n    //bytes32  winninghash= keccak256(abi.encode(winninghash));\n    }\n    \n    \n//------------------------------------Public Functions----------------------------------------------------       \n\n//    \n    function makeGuess(uint guess) \n    notowner\n    LotteryActive\n    public \n    payable \n    returns(bool){\n        require(guess != 0x20);\n        require(guess<=20);\n        require(msg.value == price);\n        allholders.push(msg.sender);\n        holders[playerID]= msg.sender;\n        emit Guess(msg.sender,playerID,guess,msg.value);\n        playerID++;\n        allguess.push(guess);\n        Guesses[msg.sender]= guess;\n        Total=Total + msg.value;\n        return true;\n    }\n       \n       \n        function drawwinner()\n        public \n        onlyowner\n        alreadyDrawn\n        returns(address[]) {\n            \n            LuckyNumber=uint8(uint256(keccak256(abi.encodePacked(block.timestamp, block.difficulty)))%21);\n            for(uint i=0;i<allholders.length;i++){\n                if( LuckyNumber==allguess[i] ){\n                    winners.push(allholders[i]);\n                    count++;\n                }\n            }\n            winnerDrawn=true;\n            return winners;\n        }\n        \n        \n        \n        function distributeReward()\n        onlyowner\n        LotteryActive\n        internal\n        {\n            if(count == 0){\n                //selfdestruct(owner);\n                owner.transfer(address(this).balance);\n                DeleteAll();\n                return;\n                \n            }\n            uint winnerreward= (address(this).balance/2)/count;\n            for(uint j=0;j<winners.length;j++){ \n                winners[j].transfer(winnerreward);\n                }\n                \n                owner.transfer(address(this).balance);\n                DeleteAll();\n                return;\n        }\n        \n        \n//-----------------------------------------Delete all variables to play next round-----------------------------\n\n\n            function DeleteAll() \n            onlyowner\n            internal\n            {                    \n                    winnerDrawn = false;\n                    active = true;\n                    delete LuckyNumber;\n                    delete Total;\n                    delete allholders;\n                    delete count;\n                    delete winners;\n                    delete allguess;\n                    delete Total;\n                    delete playerID;\n               }\n            \n        }\n     \n",
  "sourcePath": "/home/appinventiv/Lot/LotteryDapp/contracts/Rlottery.sol",
  "compiler": {
    "name": "solc",
    "version": "0.4.24+commit.e67f0147.Emscripten.clang"
  },
  "schemaVersion": "2.0.1",
  "updatedAt": "2018-11-03T18:07:05.947Z"
}